:020000040800F2
:10000000005000203D1400089D130008A5130008AF
:10001000AD130008B5130008BD1300080000000070
:10002000000000000000000000000000C5130008F0
:10003000D113000800000000DD130008E9130008D8
:10004000851400088514000885140008851400082C
:10005000851400088514000885140008851400081C
:10006000851400088514000885140008851400080C
:1000700085140008851400088514000885140008FC
:1000800085140008851400088514000885140008EC
:1000900085140008851400088514000885140008DC
:1000A00085140008F513000885140008851400085D
:1000B00085140008851400088514000885140008BC
:1000C00085140008851400088514000885140008AC
:1000D00085140008091400081D1400088514000880
:1000E000851400088514000885140008000000002D
:1000F0000000000000000000000000000000000000
:0C01000000000000000000005FF808F1A3
:10010C0010B5054C237833B9044B13B10448AFF345
:10011C0000800123237010BD0C00002000000000A3
:10012C00FC4D000808B5034B1BB103490348AFF362
:10013C00008008BD0000000010000020FC4D0008ED
:10014C0080B584B000AF0346FB71FB7940F2E73217
:10015C0002FB03F3134AA2FB03235B09FB6001229E
:10016C000121114802F0C3F9002202210E4802F0CD
:10017C00BEF901224FF400510C4802F0B8F90022EC
:10018C004FF48041094802F0B2F9094B1B68FA6838
:10019C005A63074B1B68FA689A6300BF1037BD4659
:1001AC0080BD00BF1F85EB5100080140000C0140D1
:1001BC003C01002080B584B000AF0346FB71FB7995
:1001CC0040F2E73202FB03F3134AA2FB03235B0961
:1001DC00FB6000220121114802F089F90122022161
:1001EC000E4802F084F900224FF400510C4802F042
:1001FC007EF901224FF48041094802F078F9094B4D
:10020C001B68FA685A63074B1B68FA689A6300BF4D
:10021C001037BD4680BD00BF1F85EB510008014063
:10022C00000C01403C01002080B584B000AF0346B7
:10023C00FB71FB7940F2E73202FB03F3134AA2FB9A
:10024C0003235B09FB6000220121114802F04FF9E6
:10025C00012202210E4802F04AF901224FF400510A
:10026C000C4802F044F900224FF48041094802F096
:10027C003EF9094B1B68FA685A63074B1B68FA680E
:10028C009A6300BF1037BD4680BD00BF1F85EB5180
:10029C0000080140000C01403C01002080B584B0F6
:1002AC0000AF0346FB71FB7940F2E73202FB03F32C
:1002BC00134AA2FB03235B09FB60012201211148B5
:1002CC0002F015F9002202210E4802F010F900226A
:1002DC004FF400510C4802F00AF901224FF480410E
:1002EC00094802F004F9094B1B68FA685A63074B7A
:1002FC001B68FA689A6300BF1037BD4680BD00BF0B
:10030C001F85EB5100080140000C01403C0100200E
:10031C0080B500AF002201210E4802F0E8F800225F
:10032C0002210C4802F0E3F800224FF400510A4875
:10033C0002F0DDF800224FF48041074802F0D7F8B4
:10034C00064B1B6800225A63044B1B6800229A63FD
:10035C0000BF80BD00080140000C01403C010020A2
:10036C0080B485B000AF0346FB71FB79B42B01D987
:10037C00B423FB71FB794FF4FA6202FB03F39B0885
:10038C00074AA2FB03239B0803F5FA73FB60054B9A
:10039C001B68FA68DA6300BF1437BD4680BC70472F
:1003AC00176CC1168401002080B582B000AF002309
:1003BC007B6000224FF480712E4802F098F82E4B8F
:1003CC001B6800225A6200BF2B4B1B685B6A012B17
:1003DC00FAD901224FF48071264802F088F8264B96
:1003EC001B6800225A6200BF234B1B685B6A092BF7
:1003FC00FAD900224FF480711E4802F078F81E4B97
:10040C001B6800225A6209E01B4B1B685B6A47F2AF
:10041C003052934202D940F2E73327E04FF40061A7
:10042C00144802F04DF80346002BEDD0124B1B681C
:10043C0000225A6209E0104B1B685B6A47F230528B
:10044C00934202D940F2E73310E04FF400610948BF
:10045C0002F036F80346002BEDD1074B1B685B6AA4
:10046C007B607B68054AA2FB03235B0918460837AF
:10047C00BD4680BD00080140AC00002009CB3D8D7D
:10048C0080B500AF104801F057F90A210E4801F071
:10049C002DFA0346002B05D10B4801F02DFB03462A
:1004AC000A4A13600A21084801F020FA0346002B7F
:1004BC0005D1054801F020FB0346054A13600248AC
:1004CC0001F0E8F900BF80BD280000206002002088
:1004DC006402002080B400AF084B1B68B3F5FA6FC0
:1004EC0004D8074B1B68B3F5FA6F01D9012300E060
:1004FC0000231846BD4680BC704700BF6002002038
:10050C006402002080B582B000AF0346FB71FB791A
:10051C00413B122B55D801A252F823F0B905000823
:10052C0083050008CF050008CF050008CF0500089B
:10053C0075050008CF050008CF050008CF05000899
:10054C00CF050008CF05000891050008CF0500086D
:10055C00CF050008CF050008CF050008CF0500081F
:10056C009F050008AD050008184B00221A7050209A
:10057C00FFF7E6FD26E0154B00221A705020FFF71E
:10058C0019FE1FE0114B00221A704620FFF74CFE9B
:10059C0018E00E4B00221A704620FFF77FFE11E088
:1005AC000A4B00221A70FFF7B3FE0BE0074B1B78C7
:1005BC00002B0CBF01230023DBB21A46034B1A702D
:1005CC0000E000BF00BF0837BD4680BD69020020B7
:1005DC0080B483B000AF0346FB710B46BB7113466E
:1005EC007B71084B1B68FA795A63064B1B68BA7906
:1005FC009A63044B1B687A79DA6300BF0C37BD46EB
:10060C0080BC7047F400002080B500AF00F036FFCE
:10061C0000F0B4F800F0BCFB00F00CF900F056F957
:10062C0000F082F900F0D0F900F058FA00F0D8FA96
:10063C0000F05AFB00F082FB474802F081FE0021DB
:10064C00464802F01FFF0421444802F01BFF08211A
:10065C00424802F017FF0021414802F013FF042129
:10066C003F4802F00FFF08213E4802F00BFF00222A
:10067C000021172001F0B7FC172001F0D0FC5A2004
:10068C00FFF76EFE0022FF210020FFF7A1FF0A23D7
:10069C0001223549354803F0ADFD0346002B04D14A
:1006AC00314B1B781846FFF72DFF314B1B78002B75
:1006BC000FD02F4B00221A70FF220021FF20FFF7D2
:1006CC0087FF6420FFF73CFD4FF4FA7000F038FF11
:1006DC003DE0284B1B78002B34D0FFF7D1FEFFF701
:1006EC0063FE0346244A1360FFF7F4FE0346002B17
:1006FC0013D000220021FF20FFF76AFF5020FFF7E4
:10070C0059FD4FF4967000F01BFF4620FFF7C6FD15
:10071C004FF4967000F014FF19E0174B1B681D2B5B
:10072C0008D8FF2200210020FFF752FF6420FFF7BA
:10073C0007FD0CE00022FF210020FFF749FFFFF727
:10074C00E7FD04E00022FF21FF20FFF741FF3220EC
:10075C0000F0F6FE9BE700BFAC000020F400002088
:10076C003C0100208401002068020020CC01002004
:10077C006A020020690200205C02002080B594B05F
:10078C0000AF07F1280328220021184604F004FBCF
:10079C0007F1140300221A605A609A60DA601A6139
:1007AC003B1D00221A605A609A60DA600123BB621A
:1007BC004FF48033FB6200233B630123BB630223B2
:1007CC007B644FF48033BB644FF4E013FB6407F19C
:1007DC002803184601F0E8FF0346002B01D000F077
:1007EC007DFB0F237B610223BB610023FB614FF474
:1007FC0080633B6200237B6207F1140302211846DD
:10080C0002F054FA0346002B01D000F067FB0223E0
:10081C007B604FF40043FB603B1D184602F0D4FB99
:10082C000346002B01D000F059FB00BF5037BD46EA
:10083C0080BD000080B584B000AF3B1D00221A6063
:10084C005A609A601F4B204A1A601E4B4FF48072FC
:10085C009A601C4B01221A731A4B00221A75194B01
:10086C004FF46022DA61174B00225A60154B0222BA
:10087C001A61144800F088FE0346002B01D000F0EA
:10088C002DFB04237B600123BB600023FB603B1D1D
:10089C0019460C4801F03CF90346002B01D000F03E
:1008AC001DFB0223BB603B1D1946064801F030F9C5
:1008BC000346002B01D000F011FB00BF1037BD46E2
:1008CC0080BD00BF280000200024014080B500AF8F
:1008DC00124B134A1A60114B124A5A600F4B0022EA
:1008EC009A600E4B0022DA600C4B4FF480421A6176
:1008FC000A4B00225A61094B00229A61074B0022D5
:10090C00DA61064B00221A62044801F009FE034624
:10091C00002B01D000F0E2FA00BF80BD580000208F
:10092C0000540040A086010080B586B000AF07F1EE
:10093C00080300221A605A609A60DA603B46002273
:10094C001A605A601E4B1F4A1A601D4B47225A6090
:10095C001B4B00229A601A4B4FF6FF72DA60184B51
:10096C0000221A61164B00225A61154B00229A6123
:10097C00134802F095FC0346002B01D000F0AEFAB0
:10098C004FF48053BB6007F1080319460C4802F082
:10099C00CDFF0346002B01D000F0A0FA00233B60F2
:1009AC0000237B603B461946054803F063FB034676
:1009BC00002B01D000F092FA00BF1837BD4680BD65
:1009CC00AC000020002C014080B58EB000AF07F1C8
:1009DC00280300221A605A609A60DA6007F120033B
:1009EC0000221A605A603B1D00221A605A609A60FD
:1009FC00DA601A615A619A61374B4FF080421A6083
:100A0C00354B00225A60344B00229A60324BFF2245
:100A1C00DA60314B00221A612F4B00229A612E486A
:100A2C0002F03EFC0346002B01D000F057FA4FF4C5
:100A3C008053BB6207F128031946274802F076FF62
:100A4C000346002B01D000F049FA234802F0C2FC07
:100A5C000346002B01D000F041FA00233B62002337
:100A6C007B6207F1200319461B4803F003FB034686
:100A7C00002B01D000F032FA60237B600023BB60B6
:100A8C000023FB6000237B613B1D002219461248AA
:100A9C0002F08AFE0346002B01D000F01FFA3B1D2A
:100AAC00042219460C4802F07FFE0346002B01D0AD
:100ABC0000F014FA3B1D08221946074802F074FE98
:100ACC000346002B01D000F009FA034800F018FB94
:100ADC0000BF3837BD4680BDF400002080B58EB015
:100AEC0000AF07F1280300221A605A609A60DA609E
:100AFC0007F1200300221A605A603B1D00221A6085
:100B0C005A609A60DA601A615A619A61324B334AC0
:100B1C001A60314B47225A602F4B00229A602E4BA1
:100B2C0040F2E732DA602C4B00221A612A4B002289
:100B3C009A61294802F0B4FB0346002B01D000F067
:100B4C00CDF94FF48053BB6207F1280319462248B4
:100B5C0002F0ECFE0346002B01D000F0BFF91E485A
:100B6C0002F038FC0346002B01D000F0B7F900234B
:100B7C003B6200237B6207F120031946164803F001
:100B8C0079FA0346002B01D000F0A8F960237B60B2
:100B9C000023BB600023FB6000237B613B1D002214
:100BAC0019460D4802F000FE0346002B01D000F060
:100BBC0095F93B1D04221946074802F0F5FD034642
:100BCC00002B01D000F08AF9034800F099FA00BF1D
:100BDC003837BD4680BD00BF3C01002000040040FA
:100BEC0080B58EB000AF07F1280300221A605A605E
:100BFC009A60DA6007F1200300221A605A603B1DEC
:100C0C0000221A605A609A60DA601A615A619A611D
:100C1C00334B344A1A60324B47225A60304B002215
:100C2C009A602F4B44F61F62DA602D4B00221A613A
:100C3C002B4B00229A612A4802F032FB0346002B10
:100C4C0001D000F04BF94FF48053BB6207F128033D
:100C5C001946234802F06AFE0346002B01D000F02F
:100C6C003DF91F4802F0B6FB0346002B01D000F003
:100C7C0035F900233B6200237B6207F12003194600
:100C8C00174803F0F7F90346002B01D000F026F9C2
:100C9C0060237B600023BB600023FB6000237B612F
:100CAC003B1D082219460E4802F07EFD0346002B20
:100CBC0001D000F013F940F2DC53BB603B1D0C2259
:100CCC001946074802F070FD0346002B01D000F0D6
:100CDC0005F9034800F014FA00BF3837BD4680BD53
:100CEC00840100200008004080B500AF114B124A6F
:100CFC001A60104B4FF416525A600E4B00229A6039
:100D0C000C4B0022DA600B4B00221A61094B0C22AF
:100D1C005A61084B00229A61064B0022DA610548A1
:100D2C0003F018FA0346002B01D000F0D7F800BFEF
:100D3C0080BD00BFCC0100200038014080B500AF61
:100D4C00114B124A1A60104B4FF4E1325A600E4BA1
:100D5C0000229A600C4B0022DA600B4B00221A61C5
:100D6C00094B0C225A61084B00229A61064B002257
:100D7C00DA61054803F0EEF90346002B01D000F0D0
:100D8C00ADF800BF80BD00BF14020020004400403D
:100D9C0080B588B000AF07F1100300221A605A60CA
:100DAC009A60DA60484B9B69474A43F010039361A1
:100DBC00454B9B6903F01003FB60FB68424B9B693E
:100DCC00414A43F0200393613F4B9B6903F020039E
:100DDC00BB60BB683C4B9B693B4A43F0040393618B
:100DEC00394B9B6903F004037B607B68364B9B6932
:100DFC00354A43F008039361334B9B6903F00803B6
:100E0C003B603B68002240F20311304801F06FFB5D
:100E1C0000224FF4D0412E4801F069FB4FF4C0433F
:100E2C003B6100237B610023BB6107F11003194672
:100E3C00284801F0C1F940F203133B6101237B61A7
:100E4C000023BB610223FB6107F1100319461F4805
:100E5C0001F0B2F903233B6100237B610023BB61EA
:100E6C0007F1100319461A4801F0A6F94FF4D043C4
:100E7C003B6101237B610023BB610223FB6107F112
:100E8C0010031946124801F097F94FF480533B6157
:100E9C00114B7B610123BB6107F1100319460C4810
:100EAC0001F08AF94FF400633B6100237B6100235E
:100EBC00BB6107F110031946044801F07DF900BF2E
:100ECC002037BD4680BD00BF001002400008014025
:100EDC00000C0140001001400000111080B400AF64
:100EEC0072B600BF00BFFDE780B485B000AF154BF4
:100EFC009B69144A43F001039361124B9B6903F005
:100F0C000103BB60BB680F4BDB690E4A43F0805397
:100F1C00D3610C4BDB6903F080537B607B680A4B1D
:100F2C005B68FB60FB6823F0E063FB60FB6843F0ED
:100F3C000073FB60044AFB68536000BF1437BD4666
:100F4C0080BC7047001002400000014080B588B0A2
:100F5C0000AF786007F1100300221A605A609A60A3
:100F6C00DA607B681B68144A934221D1134B9B694E
:100F7C00124A43F400739361104B9B6903F40073A2
:100F8C00FB60FB680D4B9B690C4A43F004039361B7
:100F9C000A4B9B6903F00403BB60BB6830233B61C5
:100FAC0003237B6107F110031946054801F004F98E
:100FBC0000BF2037BD4680BD002401400010024018
:100FCC000008014080B588B000AF786007F11003CD
:100FDC0000221A605A609A60DA607B681B68154AB6
:100FEC00934223D1144B9B69134A43F0080393613A
:100FFC00114B9B6903F00803FB60FB68C0233B614A
:10100C0012237B610323FB6107F1100319460B4884
:10101C0001F0D2F8084BDB69074A43F40013D361A3
:10102C00054BDB6903F40013BB60BB6800BF2037C2
:10103C00BD4680BD0054004000100240000C014031
:10104C0080B586B000AF78607B681B68284A9342F5
:10105C0014D1284B9B69274A43F400639361254BB9
:10106C009B6903F400637B617B69002200211920DA
:10107C0000F0B9FF192000F0D2FF34E07B681B6848
:10108C00B3F1804F0CD11B4BDB691A4A43F00103BF
:10109C00D361184BDB6903F001033B613B6922E030
:1010AC007B681B68144A93420CD1124BDB69114AC2
:1010BC0043F00203D3610F4BDB6903F00203FB60C7
:1010CC00FB6810E07B681B680C4A93420BD1094B00
:1010DC00DB69084A43F00403D361064BDB6903F078
:1010EC000403BB60BB6800BF1837BD4680BD00BFA2
:1010FC00002C014000100240000400400008004099
:10110C0080B58CB000AF786007F1180300221A602C
:10111C005A609A60DA607B681B68B3F1804F44D1E7
:10112C004B4B9B694A4A43F008039361484B9B69BC
:10113C0003F008037B617B69454B9B69444A43F090
:10114C0004039361424B9B6903F004033B613B69CD
:10115C004FF48163BB610223FB6102237B6207F1C5
:10116C00180319463B4801F027F84FF40043BB61C4
:10117C000223FB6102237B6207F1180319463648F0
:10118C0001F01AF8354B5B68BB62BB6A23F4407301
:10119C00BB62BB6A43F0E063BB62BB6A43F440735F
:1011AC00BB622E4ABB6A53604DE07B681B682C4ABD
:1011BC0093422AD1264B9B69254A43F0080393613D
:1011CC00234B9B6903F00803FB60FB683023BB6176
:1011DC000223FB6102237B6207F1180319461D48A9
:1011EC0000F0EAFF1D4B5B68FB62FB6A23F4406373
:1011FC00FB62FB6A43F0E063FB62FB6A43F400634F
:10120C00FB62164AFB6A53601DE07B681B68154A3B
:10121C00934218D10E4B9B690D4A43F0080393611E
:10122C000B4B9B6903F00803BB60BB684FF4407326
:10123C00BB610223FB6102237B6207F11803194691
:10124C00044800F0B9FF00BF3037BD4680BD00BF79
:10125C0000100240000C0140000801400000014059
:10126C00000400400008004080B58AB000AF7860F0
:10127C0007F1180300221A605A609A60DA607B68E2
:10128C001B683F4A93423AD13E4B9B693D4A43F41B
:10129C00804393613B4B9B6903F480437B617B6987
:1012AC00384B9B69374A43F004039361354B9B6978
:1012BC0003F004033B613B694FF40073BB610223F1
:1012CC00FB6103237B6207F1180319462E4800F0DB
:1012DC0073FF4FF48063BB610023FB6100233B620F
:1012EC0007F118031946284800F066FF0022012177
:1012FC00252000F078FE252000F091FE3CE07B6874
:10130C001B68224A934237D11E4BDB691D4A43F4BA
:10131C000033D3611B4BDB6903F40033FB60FB68C8
:10132C00184B9B69174A43F004039361154B9B6957
:10133C0003F00403BB60BB680423BB610223FB61A5
:10134C0003237B6207F1180319460F4800F034FFA2
:10135C000823BB610023FB6100233B6207F11803E8
:10136C001946094800F028FF00220121262000F030
:10137C003AFE262000F053FE00BF2837BD4680BD44
:10138C0000380140001002400008014000440040B9
:10139C0080B400AF00BFFDE780B400AF00BFFDE735
:1013AC0080B400AF00BFFDE780B400AF00BFFDE725
:1013BC0080B400AF00BFFDE780B400AF00BFBD46F6
:1013CC0080BC704780B400AF00BFBD4680BC704786
:1013DC0080B400AF00BFBD4680BC704780B500AF85
:1013EC0000F092F800BF80BD80B500AF024802F05B
:1013FC00EBF800BF80BD00BFAC00002080B500AF93
:10140C00024802F08FFF00BF80BD00BFCC0100205E
:10141C0080B500AF024802F085FF00BF80BD00BF61
:10142C001402002080B400AF00BFBD4680BC7047E2
:10143C00FFF7F8FF0B480C490C4A002302E0D45884
:10144C00C4500433C4188C42F9D3094A094C002304
:10145C0001E013600432A242FBD303F0A5FCFFF7BA
:10146C00D3F87047000000200C0000205C4E0008F0
:10147C000C00002070020020FEE7000080B500AFD9
:10148C00084B1B68074A43F010031360032000F05D
:10149C009FFD0F2000F008F8FFF726FD00231846EB
:1014AC0080BD00BF0020024080B582B000AF7860E4
:1014BC00124B1A68124B1B7819464FF47A73B3FB14
:1014CC00F1F3B2FBF3F3184600F0B7FD0346002B23
:1014DC0001D001230EE07B680F2B0AD8002279681B
:1014EC004FF0FF3000F07FFD064A7B68136000234D
:1014FC0000E0012318460837BD4680BD00000020DF
:10150C00080000200400002080B400AF054B1B78BD
:10151C001A46054B1B681344034A136000BFBD46B3
:10152C0080BC7047080000206C02002080B400AF23
:10153C00024B1B681846BD4680BC70476C020020ED
:10154C0080B584B000AF7860FFF7F0FFB8607B68BF
:10155C00FB60FB68B3F1FF3F05D00A4B1B781A46C2
:10156C00FB681344FB6000BFFFF7E0FF0246BB685B
:10157C00D31AFA689A42F7D800BF00BF1037BD469D
:10158C0080BD00BF0800002080B586B000AF786039
:10159C000023FB7500233B610023BB600023FB6031
:1015AC007B68002B01D10123BEE07B689B68002B7C
:1015BC007B689B6A002B09D17B680022DA627B680E
:1015CC00002283F824207868FFF7C0FC786800F0CC
:1015DC00F1FB0346FB757B689B6A03F01003002B41
:1015EC0040F09980FB7D002B40F095807B689B6AD6
:1015FC0023F4885323F0020343F002027B689A62BF
:10160C007B685A687B68DB691A437B681B7B5B00D1
:10161C001343BA681343BB607B689B68B3F5807F48
:10162C0003D07B689B68012B02D14FF4807300E0E0
:10163C0000233A6913433B617B681B7D012B19D155
:10164C007B681B7B002B09D17B689B69013B5A0390
:10165C003B69134343F400633B610BE07B689B6A7B
:10166C0043F020027B689A627B68DB6A43F00102DC
:10167C007B68DA627B681B685B6823F469417B6872
:10168C001B683A690A435A607B681B689A68284B46
:10169C0013407A681268B9680B4393607B689B6847
:1016AC00B3F5807F03D07B689B68012B04D17B68EA
:1016BC001B69013B1B05FB607B681B68DB6A23F421
:1016CC0070017B681B68FA680A43DA627B681B68E6
:1016DC009A68184B1340BA689A420BD17B68002267
:1016EC00DA627B689B6A23F0030343F001027B6898
:1016FC009A6218E07B689B6A23F0120343F0100295
:10170C007B689A627B68DB6A43F001027B68DA6271
:10171C000123FB7507E07B689B6A43F010027B6832
:10172C009A620123FB75FB7D18461837BD4680BDB8
:10173C00FDF7E1FFFE0E1FFF80B584B000AF7860AF
:10174C000023FB737B6893F82430012B01D1022317
:10175C0098E07B68012283F82420786800F0D0FAA6
:10176C000346FB73FB7B002B40F087807B689B6AF6
:10177C0023F4407323F0010343F480727B689A6274
:10178C007B681B68414A934205D1414B5B6803F46B
:10179C007023002B15D17B689B6A23F480127B6825
:1017AC009A627B681B685B6803F48063002B26D00D
:1017BC007B689B6A23F4405343F480527B689A62A3
:1017CC001DE07B689B6A43F480127B689A627B689D
:1017DC001B682F4A934204D07B681B682B4A9342A8
:1017EC000DD12B4B5B6803F48063002B07D07B6817
:1017FC009B6A23F4405343F480527B689A627B6863
:10180C009B6A03F48053002B06D07B68DB6A23F0C1
:10181C0006027B68DA6202E07B680022DA627B688F
:10182C00002283F824207B681B686FF002021A6088
:10183C007B681B689B6803F46023B3F5602F13D19E
:10184C007B681B68114A934205D1114B5B6803F40A
:10185C007023002B08D17B681B689A687B681B6817
:10186C0042F4A0029A600CE07B681B689A687B6863
:10187C001B6842F480129A6003E07B68002283F8B4
:10188C002420FB7B18461037BD4680BD0028014044
:10189C000024014080B584B000AF78600023FB7356
:1018AC007B6893F82430012B01D102231AE07B686A
:1018BC00012283F82420786800F07CFA0346FB733D
:1018CC00FB7B002B09D17B689B6A23F4885323F0A4
:1018DC00010343F001027B689A627B68002283F863
:1018EC002420FB7B18461037BD4680BD90B587B0D1
:1018FC0000AF7860396000237B610023FB6000231C
:10190C003B61FFF713FE78617B681B689B6803F4EF
:10191C008073002B0BD07B689B6A43F020027B68A2
:10192C009A627B68002283F824200123D3E07B6831
:10193C001B685B6803F48073002B31D17B681B68D8
:10194C00DB6A03F47003002B2AD121E03B68B3F16E
:10195C00FF3F1DD03B68002B07D0FFF7E7FD024689
:10196C007B69D31A3A689A4212D27B681B681B684F
:10197C0003F00203002B0BD17B689B6A43F004023B
:10198C007B689A627B68002283F824200323A2E000
:10199C007B681B681B6803F00203002BD6D070E039
:1019AC004F4B1C68022001F0C5FB0346B4FBF3F25D
:1019BC007B681B6819694B4B0B40002B18D17B685B
:1019CC001B68D968484B0B40002B11D17B681B68F6
:1019DC001969464B0B40002B08D17B681B68D968F2
:1019EC00434B0B40002B01D1142320E029231EE094
:1019FC007B681B6819693D4B0B40002B06D17B683B
:101A0C001B68D9683A4B0B40002B0DD07B681B68C8
:101A1C001969384B0B40002B08D17B681B68D968BF
:101A2C00344B0B40002B01D1542300E0FC2302FB70
:101A3C0003F33B6121E03B68B3F1FF3F1AD03B68F5
:101A4C00002B07D0FFF772FD02467B69D31A3A6868
:101A5C009A420FD2FB683A699A420BD97B689B6A0F
:101A6C0043F004027B689A627B68002283F824208E
:101A7C00032330E0FB680133FB60FB683A699A4250
:101A8C00D9D87B681B686FF012021A607B689B6A5E
:101A9C0043F400727B689A627B681B689B6803F452
:101AAC006023B3F5602F15D17B681B7B002B11D104
:101ABC007B689B6A23F480727B689A627B689B6A62
:101ACC0003F48053002B05D17B689B6A43F0010221
:101ADC007B689A62002318461C37BD4690BD00BF38
:101AEC000000002024499224244992009224491297
:101AFC00922449004992240080B483B000AF7860EE
:101B0C007B681B68DB6C18460C37BD4680BC704785
:101B1C0080B485B000AF786039600023FB7300237C
:101B2C00BB607B6893F82430012B01D10223DCE0ED
:101B3C007B68012283F824203B685B68062B1CD849
:101B4C007B681B68596B3B685A6813469B001344AF
:101B5C00053B1F2202FA03F3DB4319403B6818686C
:101B6C003B685A6813469B001344053B00FA03F28A
:101B7C007B681B680A435A633CE03B685B680C2B30
:101B8C001CD87B681B68196B3B685A6813469B0012
:101B9C001344233B1F2202FA03F3DB4319403B6837
:101BAC0018683B685A6813469B001344233B00FAA1
:101BBC0003F27B681B680A431A631BE07B681B6893
:101BCC00D96A3B685A6813469B001344413B1F2259
:101BDC0002FA03F3DB4319403B6818683B685A6808
:101BEC0013469B001344413B00FA03F27B681B68CD
:101BFC000A43DA623B681B68092B1CD97B681B689B
:101C0C00D9683B681A6813465B0013441E3B0722D5
:101C1C0002FA03F3DB4319403B6898683B681A6887
:101C2C0013465B0013441E3B00FA03F27B681B68EF
:101C3C000A43DA6019E07B681B6819693B681A680B
:101C4C0013465B001344072202FA03F3DB431940EB
:101C5C003B6898683B681A6813465B00134400FAAB
:101C6C0003F27B681B680A431A613B681B68102BE4
:101C7C0003D03B681B68112B32D17B681B681D4A53
:101C8C00934225D17B681B689B6803F40003002BEF
:101C9C0026D17B681B689A687B681B6842F400023B
:101CAC009A603B681B68102B1AD1134B1B68134AA4
:101CBC00A2FB03239A0C13469B0013445B00BB60EE
:101CCC0002E0BB68013BBB60BB68002BF9D107E0AD
:101CDC007B689B6A43F020027B689A620123FB734A
:101CEC007B68002283F82420FB7B18461437BD4602
:101CFC0080BC7047002401400000002083DE1B43A1
:101D0C0080B584B000AF78600023FB600023BB601B
:101D1C007B681B689B6803F00103012B40D07B6838
:101D2C001B689A687B681B6842F001029A601F4B23
:101D3C001B681F4AA2FB03239B0CBB6002E0BB6821
:101D4C00013BBB60BB68002BF9D1FFF7EFFBF860E0
:101D5C001FE0FFF7EBFB0246FB68D31A022B18D9E6
:101D6C007B681B689B6803F00103012B11D07B6817
:101D7C009B6A43F010027B689A627B68DB6A43F0D3
:101D8C0001027B68DA627B68002283F8242001233D
:101D9C0007E07B681B689B6803F00103012BD8D11B
:101DAC00002318461037BD4680BD00BF0000002040
:101DBC0083DE1B4380B584B000AF78600023FB60EA
:101DCC007B681B689B6803F00103012B2ED17B6899
:101DDC001B689A687B681B6822F001029A60FFF707
:101DEC00A5FBF8601BE0FFF7A1FB0246FB68D31ACA
:101DFC00022B14D97B681B689B6803F00103012B31
:101E0C000DD17B689B6A43F010027B689A627B68F9
:101E1C00DB6A43F001027B68DA62012307E07B682E
:101E2C001B689B6803F00103012BDCD000231846D0
:101E3C001037BD4680BD000080B485B000AF78601F
:101E4C007B6803F00703FB600C4BDB68BB60BA6874
:101E5C004FF6FF031340BB60FB681A02BB681343C9
:101E6C0043F0BF6343F40033BB60044ABB68D360E8
:101E7C0000BF1437BD4680BC704700BF00ED00E0CA
:101E8C0080B400AF044BDB681B0A03F00703184651
:101E9C00BD4680BC704700BF00ED00E080B483B04D
:101EAC0000AF0346FB7197F90730002B0BDBFB7976
:101EBC0003F01F02064997F907305B09012000FA6D
:101ECC0002F241F8232000BF0C37BD4680BC70479E
:101EDC0000E100E080B483B000AF03463960FB71D1
:101EEC0097F90730002B0ADB3B68DAB20C4997F9FB
:101EFC0007301201D2B20B4483F800230AE03B688E
:101F0C00DAB20849FB7903F00F03043B1201D2B299
:101F1C000B441A7600BF0C37BD4680BC704700BF1F
:101F2C0000E100E000ED00E080B489B000AFF860A3
:101F3C00B9607A60FB6803F00703FB61FB69C3F1CE
:101F4C000703042B28BF0423BB61FB690433062B56
:101F5C0002D9FB69033B00E000237B614FF0FF32A9
:101F6C00BB6902FA03F3DA43BB681A407B699A40F7
:101F7C004FF0FF317B6901FA03F3D9437B680B40C7
:101F8C00134318462437BD4680BC704780B582B0D9
:101F9C0000AF78607B68013BB3F1807F01D30123F4
:101FAC000FE00A4A7B68013B53600F214FF0FF3072
:101FBC00FFF790FF054B00229A60044B07221A6032
:101FCC00002318460837BD4680BD00BF10E000E076
:101FDC0080B582B000AF78607868FFF72DFF00BF46
:101FEC000837BD4680BD80B586B000AF0346B960EA
:101FFC007A60FB7300237B61FFF742FF78617A689C
:10200C00B9687869FFF790FF024697F90F301146CF
:10201C001846FFF75FFF00BF1837BD4680BD80B57F
:10202C0082B000AF0346FB7197F907301846FFF7F3
:10203C0035FF00BF0837BD4680BD80B582B000AF0C
:10204C0078607868FFF7A2FF034618460837BD464C
:10205C0080BD80B485B000AF78600023FB737B68D3
:10206C0093F82130DBB2022B08D07B6804229A63F0
:10207C007B68002283F82020012320E07B681B680A
:10208C001A687B681B6822F00E021A607B681B685A
:10209C001A687B681B6822F001021A607B681A6C54
:1020AC007B68DB6B012101FA02F25A607B6801222A
:1020BC0083F821207B68002283F82020FB7B1846C4
:1020CC001437BD4680BC704780B584B000AF7860D3
:1020DC000023FB737B6893F82130DBB2022B05D015
:1020EC007B6804229A630123FB7351E07B681B68B5
:1020FC001A687B681B6822F00E021A607B681B68EA
:10210C001A687B681B6822F001021A607B681B68E6
:10211C00224A934229D07B681B68214A934222D0E1
:10212C007B681B681F4A93421AD07B681B681E4A47
:10213C00934212D07B681B681C4A93420AD07B687E
:10214C001B681B4A934202D14FF480130EE04FF0F0
:10215C0080730BE04FF4803308E04FF4805305E0BC
:10216C004FF4807302E0102300E00123114A536006
:10217C007B68012283F821207B68002283F82020D1
:10218C007B685B6B002B03D07B685B6B7868984734
:10219C00FB7B18461037BD4680BD00BF08000240CF
:1021AC001C00024030000240440002405800024033
:1021BC006C0002400000024080B48BB000AF78602D
:1021CC00396000237B6200233B6269E101227B6A58
:1021DC0002FA03F3FB613B681B68FA691340BB61AD
:1021EC00BA69FB699A4240F058813B685B689A4A2D
:1021FC0093425ED0984A934275D8984A934258D0ED
:10220C00964A93426FD8964A934252D0944A93423C
:10221C0069D8944A93424CD0924A934263D8924ADA
:10222C00934246D0904A93425DD8122B2AD8122B57
:10223C0059D801A252F823F0BF22000899220008B5
:10224C00AB220008ED220008F3220008F32200085C
:10225C00F3220008F3220008F3220008F3220008FE
:10226C00F3220008F3220008F3220008F3220008EE
:10227C00F3220008F3220008F3220008A122000830
:10228C00B5220008794A934213D02CE03B68DB68F6
:10229C003B6229E03B68DB6804333B6224E03B682B
:1022AC00DB6808333B621FE03B68DB680C333B6246
:1022BC001AE03B689B68002B02D104233B6213E0BD
:1022CC003B689B68012B05D108233B627B68FA694C
:1022DC001A6109E008233B627B68FA695A6103E0E2
:1022EC0000233B6200E000BFBB69FF2B01D87B6879
:1022FC0001E07B6804337B61BB69FF2B02D87B6AEE
:10230C009B0002E07B6A083B9B003B617B691A687F
:10231C000F213B6901FA03F3DB431A40396A3B692D
:10232C0001FA03F31A437B691A603B685B6803F09C
:10233C008053002B00F0B1804D4B9B694C4A43F00D
:10234C00010393614A4B9B6903F00103BB60BB68BB
:10235C00484A7B6A9B08023352F82330FB607B6A45
:10236C0003F003039B000F2202FA03F3DB43FA682A
:10237C001340FB607B68404A934213D07B683F4A12
:10238C0093420DD07B683E4A934207D07B683D4A0E
:10239C00934201D1032306E0042304E0022302E06C
:1023AC00012300E000237A6A02F0030292009340BA
:1023BC00FA681343FB602F497B6A9B080233FA6867
:1023CC0041F823203B685B6803F48013002B06D094
:1023DC002D4B9A682C49BB6913438B6006E02A4B42
:1023EC009A68BB69DB43284913408B603B685B6888
:1023FC0003F40013002B06D0234BDA682249BB6987
:10240C001343CB6006E0204BDA68BB69DB431E4903
:10241C001340CB603B685B6803F40033002B06D0A1
:10242C00194B5A681849BB6913434B6006E0164BAD
:10243C005A68BB69DB43144913404B603B685B68CB
:10244C0003F48033002B21D00F4B1A680E49BB6963
:10245C0013430B6021E000BF00003210000031106C
:10246C0000002210000021100000121000001110BA
:10247C00001002400000014000080140000C014027
:10248C000010014000140140000401400B4B1A687D
:10249C00BB69DB43094913400B607B6A01337B62E8
:1024AC003B681A687B6A22FA03F3002B7FF48EAE2A
:1024BC0000BF00BF2C37BD4680BC704700040140F4
:1024CC0080B485B000AF78600B467B807B689A68DF
:1024DC007B881340002B02D00123FB7301E0002307
:1024EC00FB73FB7B18461437BD4680BC704780B429
:1024FC0083B000AF78600B467B8013467B707B7893
:10250C00002B03D07A887B681A6103E07B881A045D
:10251C007B681A6100BF0C37BD4680BC7047000059
:10252C0080B584B000AF78607B68002B01D10123AB
:10253C002BE17B6893F83D30DBB2002B06D17B6836
:10254C00002283F83C207868FEF73CFD7B6824224F
:10255C0083F83D207B681B681A687B681B6822F037
:10256C0001021A607B681B681A687B681B6842F45E
:10257C0000421A607B681B681A687B681B6822F42F
:10258C0000421A6000F0DAFCF8607B685B68814AF4
:10259C00934207D8FB68804A934294BF01230023DF
:1025AC00DBB206E0FB687D4A934294BF0123002313
:1025BC00DBB2002B01D00123E7E0FB68784AA2FBD9
:1025CC0003239B0CBB607B681B685B6823F03F019B
:1025DC007B681B68BA680A435A607B681B681B6A75
:1025EC0023F03F017B685B686A4A934202D8BB6860
:1025FC00013309E0BB684FF4967202FB03F3694A9E
:10260C00A2FB03239B0901337A6812680B43136204
:10261C007B681B68DB6923F44F4222F0FF027B6866
:10262C005B685C498B4219D8FB68591E7B685B68F8
:10263C005B00B1FBF3F3591C40F6FC730B40002B11
:10264C000AD0FB68591E7B685B685B00B1FBF3F337
:10265C000133C3F30B0351E004234FE07B689B6809
:10266C00002B11D1FB68581E7B6859680B465B0028
:10267C000B44B0FBF3F30133C3F30B03002B0CBF80
:10268C0001230023DBB212E0FB68581E7B685968FB
:10269C000B469B000B4499000B44B0FBF3F3013346
:1026AC00C3F30B03002B0CBF01230023DBB2002B65
:1026BC0001D0012322E07B689B68002B0ED1FB68C4
:1026CC00581E7B6859680B465B000B44B0FBF3F358
:1026DC000133C3F30B0343F400430FE0FB68581EB4
:1026EC007B6859680B469B000B4499000B44B0FB6C
:1026FC00F3F30133C3F30B0343F4404379680968E4
:10270C001343CB617B681B681B6823F0C0017B689B
:10271C00DA697B681B6A1A437B681B680A431A6078
:10272C007B681B689B6823F4034323F0FF037A68E0
:10273C0011697A68D26811437A6812680B43936006
:10274C007B681B68DB6823F0FF017B685A697B6838
:10275C009B691A437B681B680A43DA607B681B68B9
:10276C001A687B681B6842F001021A607B680022C1
:10277C001A647B68202283F83D207B6800221A6350
:10278C007B68002283F83E20002318461037BD4694
:10279C0080BD00BFA08601007F841E00FF083D00A5
:1027AC0083DE1B43D34D621080B586B000AF7860DA
:1027BC007B68002B01D1012372E27B681B6803F05C
:1027CC000103002B00F08780924B5B6803F00C0335
:1027DC00042B0CD08F4B5B6803F00C03082B12D12D
:1027EC008C4B5B6803F48033B3F5803F0BD1894B82
:1027FC001B6803F40033002B6CD07B685B68002BE8
:10280C0068D101234CE27B685B68B3F5803F06D14D
:10281C00804B1B687F4A43F4803313602EE07B6847
:10282C005B68002B0CD17B4B1B687A4A23F48033FA
:10283C001360784B1B68774A23F4802313601DE0E8
:10284C007B685B68B3F5A02F0CD1724B1B68714A87
:10285C0043F4802313606F4B1B686E4A43F4803340
:10286C0013600BE06B4B1B686A4A23F480331360D4
:10287C00684B1B68674A23F4802313607B685B6892
:10288C00002B13D0FEF752FE386108E0FEF74EFE27
:10289C0002463B69D31A642B01D9032300E25D4B3A
:1028AC001B6803F40033002BF0D014E0FEF73EFE5F
:1028BC00386108E0FEF73AFE02463B69D31A642BF6
:1028CC0001D90323ECE1534B1B6803F40033002BB9
:1028DC00F0D100E000BF7B681B6803F00203002B03
:1028EC0063D04C4B5B6803F00C03002B0BD0494BB3
:1028FC005B6803F00C03082B1CD1464B5B6803F49C
:10290C008033002B16D1434B1B6803F00203002BC2
:10291C0005D07B681B69012B01D00123C0E13D4B25
:10292C001B6823F0F8027B685B69DB0039491343B1
:10293C000B603AE07B681B69002B20D0364B0122E0
:10294C001A60FEF7F3FD386108E0FEF7EFFD024672
:10295C003B69D31A022B01D90323A1E12D4B1B6830
:10296C0003F00203002BF0D02A4B1B6823F0F80273
:10297C007B685B69DB00274913430B6015E0264B32
:10298C0000221A60FEF7D2FD386108E0FEF7CEFD9A
:10299C0002463B69D31A022B01D9032380E11D4B5C
:1029AC001B6803F00203002BF0D17B681B6803F05B
:1029BC000803002B3AD07B689B69002B19D0174B6E
:1029CC0001221A60FEF7B2FD386108E0FEF7AEFD99
:1029DC0002463B69D31A022B01D9032360E10D4B4C
:1029EC005B6A03F00203002BF0D0012000F0CEFA5A
:1029FC001CE00A4B00221A60FEF798FD38610FE0CC
:102A0C00FEF794FD02463B69D31A022B08D9032327
:102A1C0046E100BF001002400000424280044242E6
:102A2C00924B5B6A03F00203002BE9D17B681B68B5
:102A3C0003F00403002B00F0A6800023FB758B4BE6
:102A4C00DB6903F08053002B0DD1884BDB69874A7F
:102A5C0043F08053D361854BDB6903F08053BB603B
:102A6C00BB680123FB75824B1B6803F48073002B3E
:102A7C0018D17F4B1B687E4A43F480731360FEF7BA
:102A8C0055FD386108E0FEF751FD02463B69D31A4B
:102A9C00642B01D9032303E1754B1B6803F480738A
:102AAC00002BF0D07B68DB68012B06D16F4B1B6AC7
:102ABC006E4A43F0010313622DE07B68DB68002B48
:102ACC000CD16A4B1B6A694A23F001031362674BF2
:102ADC001B6A664A23F0040313621CE07B68DB6804
:102AEC00052B0CD1614B1B6A604A43F00403136243
:102AFC005E4B1B6A5D4A43F0010313620BE05B4BB8
:102B0C001B6A5A4A23F001031362584B1B6A574A3B
:102B1C0023F0040313627B68DB68002B15D0FEF7EF
:102B2C0005FD38610AE0FEF701FD02463B69D31A48
:102B3C0041F28832934201D90323B1E04B4B1B6A1B
:102B4C0003F00203002BEED014E0FEF7EFFC38612B
:102B5C000AE0FEF7EBFC02463B69D31A41F28832DD
:102B6C00934201D903239BE0404B1B6A03F0020301
:102B7C00002BEED1FB7D012B05D13C4BDB693B4A95
:102B8C0023F08053D3617B68DB69002B00F08780D6
:102B9C00364B5B6803F00C03082B61D07B68DB6958
:102BAC00022B46D1334B00221A60FEF7BFFC386172
:102BBC0008E0FEF7BBFC02463B69D31A022B01D995
:102BCC0003236DE0294B1B6803F00073002BF0D13D
:102BDC007B681B6AB3F5803F08D1244B5B6823F4F8
:102BEC0000327B689B68214913434B601F4B5B6829
:102BFC0023F474127B68196A7B685B6A0B431B496C
:102C0C0013434B601B4B01221A60FEF78FFC38619B
:102C1C0008E0FEF78BFC02463B69D31A022B01D964
:102C2C0003233DE0114B1B6803F00073002BF0D025
:102C3C0035E0104B00221A60FEF778FC386108E092
:102C4C00FEF774FC02463B69D31A022B01D903230D
:102C5C0026E0064B1B6803F00073002BF0D11EE03E
:102C6C007B68DB69012B07D1012319E000100240BE
:102C7C0000700040600042420B4B5B68FB60FB68DD
:102C8C0003F480327B681B6A9A4206D1FB6803F41A
:102C9C0070127B685B6A9A4201D0012300E000232A
:102CAC0018461837BD4680BD0010024080B584B070
:102CBC0000AF786039607B68002B01D10123D0E034
:102CCC006A4B1B6803F007033A689A4210D9674BAA
:102CDC001B6823F0070265493B6813430B60634B89
:102CEC001B6803F007033A689A4201D00123B8E04D
:102CFC007B681B6803F00203002B20D07B681B68E9
:102D0C0003F00403002B05D0594B5B68584A43F47D
:102D1C00E06353607B681B6803F00803002B05D04D
:102D2C00534B5B68524A43F460535360504B5B689F
:102D3C0023F0F0027B689B684D4913434B607B6822
:102D4C001B6803F00103002B40D07B685B68012BF0
:102D5C0007D1474B1B6803F40033002B15D101231B
:102D6C007FE07B685B68022B07D1414B1B6803F04B
:102D7C000073002B09D1012373E03D4B1B6803F05A
:102D8C000203002B01D101236BE0394B5B6823F06C
:102D9C0003027B685B68364913434B60FEF7C6FB46
:102DAC00F8600AE0FEF7C2FB0246FB68D31A41F258
:102DBC008832934201D9032353E02D4B5B6803F017
:102DCC000C027B685B689B009A42EBD1274B1B681B
:102DDC0003F007033A689A4210D2244B1B6823F085
:102DEC00070222493B6813430B60204B1B6803F01E
:102DFC0007033A689A4201D0012332E07B681B68D2
:102E0C0003F00403002B08D0194B5B6823F4E06239
:102E1C007B68DB68164913434B607B681B6803F0C7
:102E2C000803002B09D0124B5B6823F460527B68BB
:102E3C001B69DB000E4913434B6000F021F802467E
:102E4C000B4B5B681B0903F00F030A49CB5C22FA9E
:102E5C0003F3094A1360094B1B681846FEF724FB61
:102E6C00002318461037BD4680BD00BF002002402D
:102E7C0000100240144E0008000000200400002046
:102E8C0080B487B000AF0023FB600023BB6000233D
:102E9C007B6100237B6000233B611E4B5B68FB6006
:102EAC00FB6803F00C03042B02D0082B03D027E0A3
:102EBC00194B3B6127E0FB689B0C03F00F03174A8F
:102ECC00D35C7B60FB6803F48033002B10D0114B78
:102EDC005B685B0C03F00103114AD35CBB607B683D
:102EEC000D4A03FB02F2BB68B2FBF3F37B6104E017
:102EFC007B680C4A02FB03F37B617B693B6102E05C
:102F0C00054B3B6100BF3B6918461C37BD4680BC76
:102F1C00704700BF0010024000127A002C4E0008CF
:102F2C003C4E000800093D0080B400AF024B1B680A
:102F3C001846BD4680BC70470000002080B500AF2D
:102F4C00FFF7F2FF0246054B5B681B0A03F0070311
:102F5C000349CB5C22FA03F3184680BD00100240F3
:102F6C00244E000880B500AFFFF7DEFF0246054B8C
:102F7C005B68DB0A03F007030349CB5C22FA03F31B
:102F8C00184680BD00100240244E000880B485B065
:102F9C0000AF78600A4B1B680A4AA2FB03235B0A4A
:102FAC007A6802FB03F3FB6000BFFB685A1EFA60F1
:102FBC00002BF9D100BF00BF1437BD4680BC704751
:102FCC0000000020D34D621080B586B000AF786051
:102FDC0000233B610023FB607B681B6803F001034B
:102FEC00002B7DD00023FB754F4BDB6903F0805326
:102FFC00002B0DD14C4BDB694B4A43F08053D36112
:10300C00494BDB6903F08053BB60BB680123FB7544
:10301C00464B1B6803F48073002B18D1434B1B6881
:10302C00424A43F480731360FEF780FA386108E07B
:10303C00FEF77CFA02463B69D31A642B01D90323B1
:10304C006DE03A4B1B6803F48073002BF0D0364BC9
:10305C001B6A03F44073FB60FB68002B2ED07B686B
:10306C005B6803F44073FA689A4227D02E4B1B6AB4
:10307C0023F44073FB602E4B01221A602C4B002270
:10308C001A60294AFB681362FB6803F00103002BEA
:10309C0014D0FEF74BFA38610AE0FEF747FA024605
:1030AC003B69D31A41F28832934201D9032336E0AB
:1030BC001D4B1B6A03F00203002BEED01A4B1B6A4C
:1030CC0023F440727B685B68174913430B62FB7DEA
:1030DC00012B05D1144BDB69134A23F08053D361C8
:1030EC007B681B6803F00203002B08D00E4B5B6857
:1030FC0023F440427B689B680B4913434B607B680D
:10310C001B6803F01003002B08D0074B5B6823F4FB
:10311C0080027B68DB68044913434B60002318462C
:10312C001837BD4680BD00BF001002400070004043
:10313C004004424280B588B000AF786000237B61C8
:10314C000023FB6100233B610023FB600023BB6178
:10315C007B68102B0AD07B68102B00F28A807B686E
:10316C00012B45D07B68022B75D082E0464B5B6807
:10317C00FB60454B1B6803F08073002B7BD0FB6816
:10318C009B0C03F00F03414AD35C3B61FB6803F4D7
:10319C008033002B15D03C4B5B685B0C03F00103B8
:1031AC003B4AD35C7B61FB6803F48033002B0DD06E
:1031BC00384A7B69B2FBF3F23B6902FB03F3FB6118
:1031CC0004E03B69344A02FB03F3FB612E4B5B6862
:1031DC0003F48003B3F5800F02D1FB69BB614AE0B5
:1031EC00FB695B002D4AA2FB03235B08BB6142E039
:1031FC00254B1B6AFB60FB6803F44073B3F5807FBF
:10320C0008D1FB6803F00203002B03D04FF40043FA
:10321C00BB611FE0FB6803F44073B3F5007F09D179
:10322C00194B5B6A03F00203002B03D049F64043B1
:10323C00BB610FE0FB6803F44073B3F5407F1CD116
:10324C00114B1B6803F40033002B16D04FF22443B0
:10325C00BB6112E011E0FFF785FE02460A4B5B688A
:10326C009B0B03F0030301335B00B2FBF3F3BB6175
:10327C0004E000BF02E000BF00E000BFBB691846DD
:10328C002037BD4680BD00BF00100240404E0008F4
:10329C00504E000800127A0000093D00ABAAAAAA01
:1032AC0080B582B000AF78607B68002B01D1012320
:1032BC0041E07B6893F83D30DBB2002B06D17B6894
:1032CC00002283F83C207868FDF7BAFE7B68022266
:1032DC0083F83D207B681A687B68043319461046D6
:1032EC0000F018FC7B68012283F846207B680122E1
:1032FC0083F83E207B68012283F83F207B68012203
:10330C0083F840207B68012283F841207B680122EE
:10331C0083F842207B68012283F843207B680122DA
:10332C0083F844207B68012283F845207B680122C6
:10333C0083F83D20002318460837BD4680BD0000A9
:10334C0080B485B000AF78607B6893F83D30DBB219
:10335C00012B01D0012332E07B68022283F83D204F
:10336C007B681B68184A93420ED07B681B68B3F1CC
:10337C00804F09D07B681B68144A934204D07B6849
:10338C001B68134A934211D17B681B689B6803F03E
:10339C000703FB60FB68062B10D07B681B681A6860
:1033AC007B681B6842F001021A6007E07B681B68AF
:1033BC001A687B681B6842F001021A6000231846E9
:1033CC001437BD4680BC7047002C014000040040FF
:1033DC000008004080B582B000AF78607B68002B9D
:1033EC0001D1012341E07B6893F83D30DBB2002B27
:1033FC0006D17B68002283F83C20786800F039F80D
:10340C007B68022283F83D207B681A687B68043352
:10341C001946104600F07EFB7B68012283F846209B
:10342C007B68012283F83E207B68012283F83F20D1
:10343C007B68012283F840207B68012283F84120BD
:10344C007B68012283F842207B68012283F84320A9
:10345C007B68012283F844207B68012283F8452095
:10346C007B68012283F83D20002318460837BD46AF
:10347C0080BD80B483B000AF786000BF0C37BD4610
:10348C0080BC704780B584B000AF786039603B6811
:10349C00002B09D17B6893F83E30DBB2012B14BFB3
:1034AC0001230023DBB222E03B68042B09D17B68AB
:1034BC0093F83F30DBB2012B14BF01230023DBB2A6
:1034CC0015E03B68082B09D17B6893F84030DBB2E0
:1034DC00012B14BF01230023DBB208E07B6893F8B7
:1034EC004130DBB2012B14BF01230023DBB2002BD4
:1034FC0001D001235EE03B68002B04D17B680222E3
:10350C0083F83E2013E03B68042B04D17B68022235
:10351C0083F83F200BE03B68082B04D17B68022228
:10352C0083F8402003E07B68022283F841207B680B
:10353C001B6801223968184600F078FD7B681B680F
:10354C001E4A934207D17B681B685A6C7B681B68C8
:10355C0042F400425A647B681B68184A93420ED0AE
:10356C007B681B68B3F1804F09D07B681B68144AD9
:10357C00934204D07B681B68124A934211D17B683A
:10358C001B689B6803F00703FB60FB68062B10D0DD
:10359C007B681B681A687B681B6842F001021A6022
:1035AC0007E07B681B681A687B681B6842F00102A5
:1035BC001A60002318461037BD4680BD002C014010
:1035CC00000400400008004080B584B000AF786073
:1035DC007B681B68DB68FB607B681B681B69BB60D6
:1035EC00BB6803F00203002B20D0FB6803F002033E
:1035FC00002B1BD07B681B686FF002021A617B6882
:10360C0001221A777B681B689B6903F00303002B6C
:10361C0003D0786800F063FA05E0786800F056FA99
:10362C00786800F065FA7B6800221A77BB6803F0B3
:10363C000403002B20D0FB6803F00403002B1BD0E9
:10364C007B681B686FF004021A617B6802221A7790
:10365C007B681B689B6903F44073002B03D078686C
:10366C0000F03DFA05E0786800F030FA786800F078
:10367C003FFA7B6800221A77BB6803F00803002B23
:10368C0020D0FB6803F00803002B1BD07B681B6861
:10369C006FF008021A617B6804221A777B681B683A
:1036AC00DB6903F00303002B03D0786800F017FAF2
:1036BC0005E0786800F00AFA786800F019FA7B687F
:1036CC0000221A77BB6803F01003002B20D0FB6894
:1036DC0003F01003002B1BD07B681B686FF01002EB
:1036EC001A617B6808221A777B681B68DB6903F414
:1036FC004073002B03D0786800F0F1F905E078688E
:10370C0000F0E4F9786800F0F3F97B6800221A778E
:10371C00BB6803F00103002B0CD0FB6803F0010322
:10372C00002B07D07B681B686FF001021A61786868
:10373C0000F0C3F9BB6803F08003002B0CD0FB68CE
:10374C0003F08003002B07D07B681B686FF08002AE
:10375C001A61786800F0F5FCBB6803F04003002B9D
:10376C000CD0FB6803F04003002B07D07B681B6870
:10377C006FF040021A61786800F0C3F9BB6803F07F
:10378C002003002B0CD0FB6803F02003002B07D088
:10379C007B681B686FF020021A61786800F0C8FC27
:1037AC0000BF1037BD4680BD80B586B000AFF86055
:1037BC00B9607A600023FB75FB6893F83C30012BF1
:1037CC0001D10223AEE0FB68012283F83C207B6828
:1037DC000C2B00F29F8001A252F823F01D38000838
:1037EC002139000821390008213900085D3800080A
:1037FC002139000821390008213900089F380008B8
:10380C00213900082139000821390008DF38000867
:10381C00FB681B68B968184600F0EAF9FB681B687E
:10382C009A69FB681B6842F008029A61FB681B6886
:10383C009A69FB681B6822F004029A61FB681B689A
:10384C009969BB681A69FB681B680A439A6164E052
:10385C00FB681B68B968184600F030FAFB681B68F7
:10386C009A69FB681B6842F400629A61FB681B68EA
:10387C009A69FB681B6822F480629A61FB681B687A
:10388C009969BB681B691A02FB681B680A439A6139
:10389C0043E0FB681B68B968184600F079FAFB68CE
:1038AC001B68DA69FB681B6842F00802DA61FB6886
:1038BC001B68DA69FB681B6822F00402DA61FB689A
:1038CC001B68D969BB681A69FB681B680A43DA6113
:1038DC0023E0FB681B68B968184600F0C3FAFB6864
:1038EC001B68DA69FB681B6842F40062DA61FB68EA
:1038FC001B68DA69FB681B6822F48062DA61FB687A
:10390C001B68D969BB681B691A02FB681B680A43F0
:10391C00DA6102E00123FB7500BFFB68002283F82B
:10392C003C20FB7D18461837BD4680BD80B584B061
:10393C0000AF786039600023FB737B6893F83C30F0
:10394C00012B01D10223B4E07B68012283F83C20D7
:10395C007B68022283F83D207B681B689B68BB60F8
:10396C00BB6823F07703BB60BB6823F47F43BB6069
:10397C007B681B68BA689A603B681B68B3F5005F8C
:10398C003ED0B3F5005F00F28780B3F5805F00F0A6
:10399C008680B3F5805F7FD8702B1AD0702B7BD8C4
:1039AC00602B50D0602B77D8502B3CD0502B73D839
:1039BC00402B58D0402B6FD8302B64D0302B6BD889
:1039CC00202B60D0202B67D8002B5CD0102B5AD02A
:1039DC0062E07B6818683B6899683B685A683B688A
:1039EC00DB6800F004FB7B681B689B68BB60BB68F2
:1039FC0043F07703BB607B681B68BA689A604FE042
:103A0C007B6818683B6899683B685A683B68DB6858
:103A1C0000F0EDFA7B681B689A687B681B6842F4BF
:103A2C0080429A603CE07B6818683B6859683B6848
:103A3C00DB681A4600F064FA7B681B685021184654
:103A4C0000F0BBFA2CE07B6818683B6859683B684F
:103A5C00DB681A4600F082FA7B681B686021184606
:103A6C0000F0ABFA1CE07B6818683B6859683B684F
:103A7C00DB681A4600F044FA7B681B684021184644
:103A8C0000F09BFA0CE07B681A683B681B681946CF
:103A9C00104600F092FA03E00123FB7300E000BF34
:103AAC007B68012283F83D207B68002283F83C2050
:103ABC00FB7B18461037BD4680BD80B483B000AF89
:103ACC00786000BF0C37BD4680BC704780B483B0B3
:103ADC0000AF786000BF0C37BD4680BC704780B427
:103AEC0083B000AF786000BF0C37BD4680BC704718
:103AFC0080B483B000AF786000BF0C37BD4680BC8B
:103B0C00704780B483B000AF786000BF0C37BD46FF
:103B1C0080BC704780B485B000AF786039607B683A
:103B2C001B68FB607B682F4A93420BD07B68B3F118
:103B3C00804F07D07B682C4A934203D07B682B4A7A
:103B4C00934208D1FB6823F07003FB603B685B6811
:103B5C00FA681343FB607B68224A93420BD07B6864
:103B6C00B3F1804F07D07B681F4A934203D07B6828
:103B7C001E4A934208D1FB6823F44073FB603B68F8
:103B8C00DB68FA681343FB60FB6823F080023B6838
:103B9C005B691343FB607B68FA681A603B689A6840
:103BAC007B68DA623B681A687B689A627B680D4AAC
:103BBC00934203D13B681A697B681A637B680122C4
:103BCC005A617B681B6903F00103002B05D07B68ED
:103BDC001B6923F001027B681A6100BF1437BD46D4
:103BEC0080BC7047002C01400004004000080040DD
:103BFC0080B487B000AF786039607B681B6A7B61EA
:103C0C007B681B6A23F001027B681A627B685B6825
:103C1C003B617B689B69FB60FB6823F07003FB6076
:103C2C00FB6823F00303FB603B681B68FA681343D3
:103C3C00FB607B6923F002037B613B689B687A69BC
:103C4C0013437B617B681C4A93420CD17B6923F044
:103C5C0008037B613B68DB687A6913437B617B6992
:103C6C0023F004037B617B68134A934211D13B69B7
:103C7C0023F480733B613B6923F400733B613B6825
:103C8C005B693A6913433B613B689B693A6913432F
:103C9C003B617B683A695A607B68FA689A613B6859
:103CAC005A687B685A637B687A691A6200BF1C3752
:103CBC00BD4680BC704700BF002C014080B487B06B
:103CCC0000AF786039607B681B6A7B617B681B6A1C
:103CDC0023F010027B681A627B685B683B617B682F
:103CEC009B69FB60FB6823F4E043FB60FB6823F4F7
:103CFC004073FB603B681B681B02FA681343FB6054
:103D0C007B6923F020037B613B689B681B017A690C
:103D1C0013437B617B681D4A93420DD17B6923F071
:103D2C0080037B613B68DB681B017A6913437B6111
:103D3C007B6923F040037B617B68144A934213D167
:103D4C003B6923F480633B613B6923F400633B6173
:103D5C003B685B699B003A6913433B613B689B6919
:103D6C009B003A6913433B617B683A695A607B68F4
:103D7C00FA689A613B685A687B689A637B687A69CF
:103D8C001A6200BF1C37BD4680BC7047002C014036
:103D9C0080B487B000AF786039607B681B6A7B6148
:103DAC007B681B6A23F480727B681A627B685B6891
:103DBC003B617B68DB69FB60FB6823F07003FB6095
:103DCC00FB6823F00303FB603B681B68FA68134332
:103DDC00FB607B6923F400737B613B689B681B026F
:103DEC007A6913437B617B681D4A93420DD17B69D1
:103DFC0023F400637B613B68DB681B027A69134325
:103E0C007B617B6923F480637B617B68144A9342FA
:103E1C0013D13B6923F480533B613B6923F400537A
:103E2C003B613B685B691B013A6913433B613B682F
:103E3C009B691B013A6913433B617B683A695A6081
:103E4C007B68FA68DA613B685A687B68DA637B687E
:103E5C007A691A6200BF1C37BD4680BC704700BF30
:103E6C00002C014080B487B000AF786039607B686B
:103E7C001B6A3B617B681B6A23F480527B681A6265
:103E8C007B685B687B617B68DB69FB60FB6823F4A8
:103E9C00E043FB60FB6823F44073FB603B681B68EA
:103EAC001B02FA681343FB603B6923F400533B612C
:103EBC003B689B681B033A6913433B617B680F4A61
:103ECC00934209D17B6923F480437B613B685B6936
:103EDC009B017A6913437B617B687A695A607B68C2
:103EEC00FA68DA613B685A687B681A647B683A69DD
:103EFC001A6200BF1C37BD4680BC7047002C0140C5
:103F0C0080B487B000AFF860B9607A60FB681B6A58
:103F1C007B61FB681B6A23F00102FB681A62FB6879
:103F2C009B693B613B6923F0F0033B617B681B01A0
:103F3C003A6913433B617B6923F00A037B617A691D
:103F4C00BB6813437B61FB683A699A61FB687A69C9
:103F5C001A6200BF1C37BD4680BC704780B487B066
:103F6C0000AFF860B9607A60FB681B6A7B61FB6824
:103F7C001B6A23F01002FB681A62FB689B693B61A9
:103F8C003B6923F470433B617B681B033A69134321
:103F9C003B617B6923F0A0037B61BB681B017A69E1
:103FAC0013437B61FB683A699A61FB687A691A6210
:103FBC0000BF1C37BD4680BC704780B485B000AFD5
:103FCC00786039607B689B68FB60FB6823F070034A
:103FDC00FB603A68FB68134343F00703FB607B68A4
:103FEC00FA689A6000BF1437BD4680BC704780B435
:103FFC0087B000AFF860B9607A603B60FB689B6883
:10400C007B617B6923F47F437B613B681A027B688D
:10401C001A43BB6813437A6913437B61FB687A6963
:10402C009A6000BF1C37BD4680BC704780B487B017
:10403C0000AFF860B9607A60BB6803F01F0301221F
:10404C0002FA03F37B61FB681A6A7B69DB431A4053
:10405C00FB681A62FB681A6ABB6803F01F03796875
:10406C0001FA03F31A43FB681A6200BF1C37BD4602
:10407C0080BC704780B485B000AF786039607B68D5
:10408C0093F83C30012B01D1022346E07B680122DE
:10409C0083F83C207B68022283F83D207B681B68F8
:1040AC005B68FB607B681B689B68BB60FB6823F0EC
:1040BC007003FB603B681B68FA681343FB607B680A
:1040CC001B68FA685A607B681B68164A93420ED0CC
:1040DC007B681B68B3F1804F09D07B681B68124A60
:1040EC00934204D07B681B68104A93420CD1BB6886
:1040FC0023F08003BB603B685B68BA681343BB600A
:10410C007B681B68BA689A607B68012283F83D2043
:10411C007B68002283F83C20002318461437BD46E8
:10412C0080BC7047002C0140000400400008004097
:10413C0080B483B000AF786000BF0C37BD4680BC44
:10414C00704780B483B000AF786000BF0C37BD46B9
:10415C0080BC704780B582B000AF78607B68002B64
:10416C0001D1012342E07B6893F84130DBB2002B94
:10417C0006D17B68002283F840207868FDF774F83C
:10418C007B68242283F841207B681B68DA687B6893
:10419C001B6822F40052DA60786800F06FFD7B68CF
:1041AC001B681A697B681B6822F490421A617B6851
:1041BC001B685A697B681B6822F02A025A617B686B
:1041CC001B68DA687B681B6842F40052DA607B6813
:1041DC0000225A647B68202283F841207B682022CD
:1041EC0083F842207B6800225A6300231846083764
:1041FC00BD4680BD80B58AB002AFF860B9603B6047
:10420C001346FB8000237B61FB6893F84230DBB2E2
:10421C00202B40F08180BB68002B02D0FB88002B48
:10422C0001D1012379E0FB6800225A64FB68222249
:10423C0083F84220FB6800221A63FDF777F9786156
:10424C00FB68FA889A85FB68FA88DA85FB689B68B4
:10425C00B3F5805F08D1FB681B69002B04D10023E8
:10426C00FB61BB68BB6103E0BB68FB610023BB6106
:10427C0047E03B6800937B6900222021F86800F03E
:10428C0009FB0346002B05D0FB68202283F8422053
:10429C00032342E0FB69002B0CD1FB681B685B68B5
:1042AC009BB2C3F308039AB2BB691A80BB69023391
:1042BC00BB611FE0FB689B68B3F5805F07D0FB68B0
:1042CC009B68002B0AD1FB681B69002B06D1FB688D
:1042DC001B685B68DAB2FB691A7008E0FB681B6844
:1042EC005B68DBB203F07F03DAB2FB691A70FB691F
:1042FC000133FB61FB68DB8D9BB2013B9AB2FB681F
:10430C00DA85FB68DB8D9BB2002BB2D1FB682022D7
:10431C0083F84220002300E0022318462037BD46D4
:10432C0080BD000080B5BAB000AF78607B681B68B8
:10433C001B68C7F8E4307B681B68DB68C7F8E030A3
:10434C007B681B685B69C7F8DC300023C7F8D83082
:10435C000023C7F8D430D7F8E43003F00F03C7F8C4
:10436C00D830D7F8D830002B0FD1D7F8E43003F081
:10437C002003002B09D0D7F8E03003F02003002BEA
:10438C0003D0786800F0BCFB5BE2D7F8D830002B88
:10439C0000F0DE80D7F8DC3003F00103002B06D1EF
:1043AC00D7F8E03003F49073002B00F0D180D7F8ED
:1043BC00E43003F00103002B0BD0D7F8E03003F40A
:1043CC008073002B05D07B685B6C43F001027B682B
:1043DC005A64D7F8E43003F00403002B0BD0D7F861
:1043EC00DC3003F00103002B05D07B685B6C43F0E1
:1043FC0002027B685A64D7F8E43003F00203002B06
:10440C000BD0D7F8DC3003F00103002B05D07B6810
:10441C005B6C43F004027B685A64D7F8E43003F019
:10442C000803002B11D0D7F8E03003F02003002B49
:10443C0005D1D7F8DC3003F00103002B05D07B68E5
:10444C005B6C43F008027B685A647B685B6C002BE6
:10445C0000F0F281D7F8E43003F02003002B08D0F1
:10446C00D7F8E03003F02003002B02D0786800F07E
:10447C0047FB7B681B685B6903F04003002B14BF90
:10448C0001230023DBB2C7F8D4307B685B6C03F0EC
:10449C000803002B03D1D7F8D430002B4FD0786809
:1044AC0000F051FA7B681B685B6903F04003002B3A
:1044BC0041D07B681B681433C7F89C30D7F89C300C
:1044CC0053E8003FC7F89830D7F8983023F04003F2
:1044DC00C7F8D0307B681B681433D7F8D020C7F8E6
:1044EC00A820C7F8A430D7F8A410D7F8A82041E822
:1044FC000023C7F8A030D7F8A030002BD9D17B68A7
:10450C00DB6B002B13D07B68DB6B7E4A5A637B68BA
:10451C00DB6B1846FDF7D8FD0346002B16D07B68E5
:10452C00DB6B5B6B7A68D26B104698470EE0786851
:10453C0000F09CF90AE0786800F098F906E07868D9
:10454C0000F094F97B6800225A6475E100BF73E1B6
:10455C007B681B6B012B40F04F81D7F8E43003F0E4
:10456C001003002B00F04881D7F8E03003F0100363
:10457C00002B00F041810023BB607B681B681B682B
:10458C00BB607B681B685B68BB60BB687B681B6837
:10459C005B6903F04003002B00F0B6807B68DB6B9B
:1045AC001B685B68A7F8BE30B7F8BE30002B00F074
:1045BC0045817B689B8DB7F8BE209A4280F03E8186
:1045CC007B68B7F8BE20DA857B68DB6B9B69202B98
:1045DC0000F088807B681B680C33C7F88830D7F8EC
:1045EC00883053E8003FC7F88430D7F8843023F480
:1045FC008073C7F8B8307B681B680C33D7F8B820C9
:10460C00C7F89420C7F89030D7F89010D7F89420BA
:10461C0041E80023C7F88C30D7F88C30002BD9D167
:10462C007B681B6814337B677B6F53E8003F3B67E9
:10463C003B6F23F00103C7F8B4307B681B6814335D
:10464C00D7F8B420C7F88020FB67F96FD7F8802023
:10465C0041E80023BB67BB6F002BE1D17B681B6873
:10466C0014333B663B6E53E8003FFB65FB6D23F058
:10467C004003C7F8B0307B681B681433D7F8B02000
:10468C00FA66BB66B96EFA6E41E800237B667B6EF8
:10469C00002BE3D17B68202283F842207B68002228
:1046AC001A637B681B680C33FB64FB6C53E8003F9C
:1046BC00BB64BB6C23F01003C7F8AC307B681B6881
:1046CC000C33D7F8AC20BA657B65796DBA6D41E8CF
:1046DC0000233B653B6D002BE3D17B68DB6B1846FD
:1046EC00FDF7B7FC7B6802225A637B689A8D7B6866
:1046FC00DB8D9BB2D31A9BB21946786800F0BFF8D9
:10470C009CE000BF174A00087B689A8D7B68DB8DA4
:10471C009BB2D31AA7F8CE307B68DB8D9BB2002BF3
:10472C0000F08E80B7F8CE30002B00F089807B68CB
:10473C001B680C33BB63BB6B53E8003F7B637B6B29
:10474C0023F49073C7F8C8307B681B680C33D7F818
:10475C00C8207A643B64396C7A6C41E80023FB63B3
:10476C00FB6B002BE3D17B681B6814337B627B6A89
:10477C0053E8003F3B623B6A23F00103C7F8C430A7
:10478C007B681B681433D7F8C4203A63FB62F96A60
:10479C003A6B41E80023BB62BB6A002BE3D17B6818
:1047AC00202283F842207B6800221A637B681B68F6
:1047BC000C333B613B6953E8003FFB60FB6823F023
:1047CC001003C7F8C0307B681B680C33D7F8C020C7
:1047DC00FA61BB61B969FA6941E800237B617B69C5
:1047EC00002BE3D17B6802225A63B7F8CE3019460E
:1047FC00786800F044F823E0D7F8E43003F0800345
:10480C00002B09D0D7F8E03003F08003002B03D045
:10481C00786800F00EF914E0D7F8E43003F04003A8
:10482C00002B0ED0D7F8E03003F04003002B08D05B
:10483C00786800F04DF904E000BF02E000BF00E032
:10484C0000BFE837BD4680BD80B483B000AF786050
:10485C0000BF0C37BD4680BC704780B483B000AF3E
:10486C00786000BF0C37BD4680BC704780B483B005
:10487C0000AF786000BF0C37BD4680BC704780B479
:10488C0083B000AF78600B467B8000BF0C37BD4611
:10489C0080BC704780B586B000AFF860B9603B60F3
:1048AC001346FB713BE03B6AB3F1FF3F37D0FCF79B
:1048BC003DFE02463B68D31A3A6A9A4202D33B6ADF
:1048CC00002B01D103233AE0FB681B68DB6803F083
:1048DC000403002B23D0BB68802B20D0BB68402B5B
:1048EC001DD0FB681B681B6803F00803082B16D14E
:1048FC0000237B61FB681B681B687B61FB681B6882
:10490C005B687B617B69F86800F01DF8FB68082226
:10491C005A64FB68002283F8402001230FE0FB68F7
:10492C001B681A68BB681340BA689A420CBF012313
:10493C000023DBB21A46FB799A42B4D00023184606
:10494C001837BD4680BD80B495B000AF78607B68E9
:10495C001B680C337B637B6B53E8003F3B633B6B07
:10496C0023F49073FB647B681B680C33FA6C3A6419
:10497C00FB63F96B3A6C41E80023BB63BB6B002B08
:10498C00E5D17B681B6814333B623B6A53E8003FFC
:10499C00FB61FB6923F00103BB647B681B68143368
:1049AC00BA6CFA62BB62B96AFA6A41E800237B62AC
:1049BC007B6A002BE5D17B681B6B012B19D17B68C3
:1049CC001B680C33FB60FB6853E8003FBB60BB68A3
:1049DC0023F010037B647B681B680C337A6CBA6120
:1049EC007B617969BA6941E800233B613B69002B23
:1049FC00E5D17B68202283F842207B6800221A6371
:104A0C0000BF5437BD4680BC704780B584B000AF42
:104A1C0078607B685B6AFB60FB680022DA85FB6868
:104A2C000022DA84F868FFF721FF00BF1037BD467B
:104A3C0080BD80B485B000AF78607B6893F841305E
:104A4C00DBB2212B3ED17B689B68B3F5805F14D120
:104A5C007B681B69002B10D17B681B6AFB60FB68B1
:104A6C001B881A467B681B68C2F308025A607B6875
:104A7C001B6A9A1C7B681A6208E07B681B6A591CCB
:104A8C007A6811621A787B681B685A607B68DB8CC9
:104A9C009BB2013B9BB27A681946D184002B0FD193
:104AAC007B681B68DA687B681B6822F08002DA601E
:104ABC007B681B68DA687B681B6842F04002DA602E
:104ACC00002300E0022318461437BD4680BC704713
:104ADC0080B582B000AF78607B681B68DA687B6851
:104AEC001B6822F04002DA607B68202283F84120A8
:104AFC007868FFF7A9FE002318460837BD4680BD2D
:104B0C0080B58CB000AF78607B6893F84230DBB234
:104B1C00222B40F0AE807B689B68B3F5805F17D189
:104B2C007B681B69002B13D10023FB627B689B6A9B
:104B3C00BB627B681B685B689BB2C3F308039AB2C9
:104B4C00BB6A1A807B689B6A9A1C7B689A6226E017
:104B5C007B689B6AFB620023BB627B689B68B3F536
:104B6C00805F07D07B689B68002B0AD17B681B6930
:104B7C00002B06D17B681B685B68DAB2FB6A1A7083
:104B8C0008E07B681B685B68DBB203F07F03DAB27A
:104B9C00FB6A1A707B689B6A5A1C7B689A627B68FA
:104BAC00DB8D9BB2013B9BB27A681946D185002BF9
:104BBC005DD17B681B68DA687B681B6822F0200279
:104BCC00DA607B681B68DA687B681B6822F4807289
:104BDC00DA607B681B685A697B681B6822F00102EB
:104BEC005A617B68202283F842207B6800225A633A
:104BFC007B681B6B012B35D17B6800221A637B68A9
:104C0C001B680C337B617B6953E8003F3B613B695C
:104C1C0023F010037B627B681B680C337A6A3A6260
:104C2C00FB61F9693A6A41E80023BB61BB69002B5F
:104C3C00E5D17B681B681B6803F01003102B0AD1AD
:104C4C000023FB607B681B681B68FB607B681B6830
:104C5C005B68FB60FB687B689B8D19467868FFF787
:104C6C000EFE02E07868FFF7F8FD002302E0002357
:104C7C0000E0022318463037BD4680BD80B584B0B5
:104C8C0000AF78607B681B681B6923F440517B681C
:104C9C00DA687B681B680A431A617B689A687B68D0
:104CAC001B691A437B685B691343BB607B681B6899
:104CBC00DB6823F4B05323F00C037A681268B968EC
:104CCC000B43D3607B681B685B6923F440717B6882
:104CDC009A697B681B680A435A617B681B682C4A7B
:104CEC00934203D1FEF73EF9F86002E0FEF726F995
:104CFC00F860FA6813469B0013449A001A447B68C8
:104D0C005B689B00B2FBF3F3224AA2FB03235B0913
:104D1C001901FA6813469B0013449A001A447B68E5
:104D2C005B689B00B2FBF3F21A4BA3FB02035B091B
:104D3C00642000FB03F3D31A1B013233154AA2FB88
:104D4C0003235B0903F0F0031944FA6813469B0034
:104D5C0013449A001A447B685B689B00B2FBF3F225
:104D6C000C4BA3FB02035B09642000FB03F3D31A77
:104D7C001B013233074AA2FB03235B0903F00F022A
:104D8C007B681B680A449A6000BF1037BD4680BD23
:104D9C00003801401F85EB5103460244934200D179
:104DAC00704703F8011BF9E770B500260C4D0D4C4C
:104DBC00641BA410A64209D100F01AF800260A4D73
:104DCC000A4C641BA410A64205D170BD55F8043BD7
:104DDC0098470136EEE755F8043B98470136F2E761
:104DEC00544E0008544E0008544E0008584E00080B
:104DFC00F8B500BFF8BC08BC9E467047F8B500BFBC
:084E0C00F8BC08BC9E4670478B
:104E14000000000000000000010203040607080966
:104E24000000000001020304020304050607080948
:104E34000A0B0C0D0E0F10100102000002030405F2
:104E4400060708090A0B0C0D0E0F101001020000D2
:044E54003101000820
:044E58000D01000840
:0C4E5C0000127A001000000001000000AD
:040000050800143D9E
:00000001FF
